:100000008087002029350100153B020015350100CD
:1000100015350100153501001535010000000000FF
:10002000000000000000000000000000C1360100D8
:1000300015350100000000005D3601001535010096
:10004000C93801000D790200C9380100C938010022
:10005000C9380100C9380100C9380100C938010098
:10006000DD780200C9380100C9380100F7780200C4
:10007000C9380100C9380100C9380100C938010078
:10008000C9380100C9380100C9380100C938010068
:10009000C9380100C9380100C9380100C938010058
:1000A000C9380100C9380100C9380100C938010048
:1000B000C9380100C9380100C9380100C938010038
:1000C000C9380100C9380100C9380100C938010028
:1000D000C9380100C9380100C9380100C938010018
:1000E000C9380100C9380100C9380100C938010008
:1000F000C9380100C9380100C9380100C9380100F8
:1001000081F0004102E000BF83F0004330B54FEAC8
:1001100041044FEA430594EA050F08BF90EA020F35
:100120001FBF54EA000C55EA020C7FEA645C7FEAC8
:10013000655C00F0E2804FEA5454D4EB5555B8BFEB
:100140006D420CDD2C4480EA020281EA030382EA5C
:10015000000083EA010180EA020281EA0303362DEE
:1001600088BF30BD11F0004F4FEA01314FF4801CC1
:100170004CEA113102D0404261EB410113F0004FD3
:100180004FEA03334CEA133302D0524263EB43038A
:1001900094EA050F00F0A780A4F10104D5F1200E28
:1001A0000DDB02FA0EFC22FA05F2801841F1000183
:1001B00003FA0EF2801843FA05F359410EE0A5F157
:1001C00020050EF1200E012A03FA0EFC28BF4CF088
:1001D000020C43FA05F3C01851EBE37101F000453E
:1001E00007D54FF0000EDCF1000C7EEB00006EEB4B
:1001F0000101B1F5801F1BD3B1F5001F0CD34908D5
:100200005FEA30004FEA3C0C04F101044FEA44522B
:1002100012F5800F80F09A80BCF1004F08BF5FEAB2
:10022000500C50F1000041EB045141EA050130BD92
:100230005FEA4C0C404141EB0101013C28BFB1F5A4
:10024000801FE9D291F0000F04BF01460020B1FAEF
:1002500081F308BF2033A3F10B03B3F120020CDAC2
:100260000C3208DD02F1140CC2F10C0201FA0CF0A0
:1002700021FA02F10CE002F11402D8BFC2F1200C05
:1002800001FA02F120FA0CFCDCBF41EA0C019040BB
:10029000E41AA2BF01EB0451294330BD6FEA040404
:1002A0001F3C1CDA0C340EDC04F11404C4F12002EF
:1002B00020FA04F001FA02F340EA030021FA04F301
:1002C00045EA030130BDC4F10C04C4F1200220FA58
:1002D00002F001FA04F340EA0300294630BD21FA96
:1002E00004F0294630BD94F0000F83F4801306BF5C
:1002F00081F480110134013D4EE77FEA645C18BF50
:100300007FEA655C29D094EA050F08BF90EA020FE6
:1003100005D054EA000C04BF1946104630BD91EADE
:10032000030F1EBF0021002030BD5FEA545C05D1E1
:100330004000494128BF41F0004130BD14F5800420
:100340003CBF01F5801130BD01F0004545F0FE4194
:1003500041F470014FF0000030BD7FEA645C1ABFC9
:10036000194610467FEA655C1CBF0B46024650EA00
:10037000013406BF52EA033591EA030F41F400212C
:1003800030BD00BF90F0000F04BF0021704730B5B2
:100390004FF4806404F132044FF000054FF0000187
:1003A00050E700BF90F0000F04BF0021704730B548
:1003B0004FF4806404F1320410F0004548BF40421D
:1003C0004FF000013EE700BF42004FEAE2014FEA72
:1003D00031014FEA02701FBF12F07F4393F07F4F4D
:1003E00081F06051704732F07F4208BF704793F050
:1003F0007F4F04BF41F40021704730B54FF4607463
:1004000001F0004521F000411CE700BF50EA010265
:1004100008BF704730B54FF000050AE050EA01020E
:1004200008BF704730B511F0004502D5404261EB7E
:1004300041014FF4806404F132045FEA915C3FF4BF
:10044000D8AE4FF003025FEADC0C18BF03325FEA5C
:10045000DC0C18BF033202EBDC02C2F1200300FA0D
:1004600003FC20FA02F001FA03FE40EA0E0021FA32
:1004700002F11444BDE600BF70B54FF0FF0C4CF420
:10048000E06C1CEA11541DBF1CEA135594EA0C0FD2
:1004900095EA0C0F00F0DEF82C4481EA030621EA0D
:1004A0004C5123EA4C5350EA013518BF52EA033548
:1004B00041F4801143F4801338D0A0FB02CE4FF0FA
:1004C0000005E1FB02E506F00042E0FB03E54FF02A
:1004D0000006E1FB03569CF0000F18BF4EF0010E22
:1004E000A4F1FF04B6F5007F64F5407404D25FEA1E
:1004F0004E0E6D4146EB060642EAC62141EA5551D1
:100500004FEAC52040EA5E504FEACE2EB4F1FD0C12
:1005100088BFBCF5E06F1ED8BEF1004F08BF5FEA90
:10052000500E50F1000041EB045170BD06F0004642
:1005300046EA010140EA020081EA0301B4EB5C04EF
:10054000C2BFD4EB0C0541EA045170BD41F48011E7
:100550004FF0000E013C00F3AB8014F1360FDEBF0C
:10056000002001F0004170BDC4F10004203C35DAE8
:100570000C341BDC04F11404C4F1200500FA05F36B
:1005800020FA04F001FA05F240EA020001F000420C
:1005900021F0004110EBD37021FA04F642EB060182
:1005A0005EEA430E08BF20EAD37070BDC4F10C04AC
:1005B000C4F1200500FA04F320FA05F001FA04F270
:1005C00040EA020001F0004110EBD37041F100015C
:1005D0005EEA430E08BF20EAD37070BDC4F1200567
:1005E00000FA05F24EEA020E20FA04F301FA05F2CF
:1005F00043EA020321FA04F001F0004121FA04F277
:1006000020EA020000EBD3705EEA430E08BF20EA46
:10061000D37070BD94F0000F0FD101F00046400080
:1006200041EB010111F4801F08BF013CF7D041EA02
:10063000060195F0000F18BF704703F00046520006
:1006400043EB030313F4801F08BF013DF7D043EAD7
:100650000603704794EA0C0F0CEA135518BF95EA8D
:100660000C0F0CD050EA410618BF52EA4306D1D114
:1006700081EA030101F000414FF0000070BD50EA33
:10068000410606BF1046194652EA430619D094EABD
:100690000C0F02D150EA013613D195EA0C0F05D1A7
:1006A00052EA03361CBF104619460AD181EA0301FB
:1006B00001F0004141F0FE4141F470014FF00000B3
:1006C00070BD41F0FE4141F4780170BD70B54FF04E
:1006D000FF0C4CF4E06C1CEA11541DBF1CEA1355CE
:1006E00094EA0C0F95EA0C0F00F0A7F8A4EB0504B0
:1006F00081EA030E52EA03354FEA013100F08880A7
:100700004FEA03334FF0805545EA131343EA12636F
:100710004FEA022245EA111545EA10654FEA002624
:100720000EF000419D4208BF964244F1FD0404F5DD
:10073000407402D25B084FEA3202B61A65EB030539
:100740005B084FEA32024FF480104FF4002CB6EBF6
:10075000020E75EB030E22BFB61A754640EA0C0076
:100760005B084FEA3202B6EB020E75EB030E22BFB6
:10077000B61A754640EA5C005B084FEA3202B6EBF7
:10078000020E75EB030E22BFB61A754640EA9C00B6
:100790005B084FEA3202B6EB020E75EB030E22BF86
:1007A000B61A754640EADC0055EA060E18D04FEA44
:1007B000051545EA16754FEA06164FEAC30343EAE4
:1007C00052734FEAC2025FEA1C1CC0D111F4801FB1
:1007D0000BD141EA00014FF000004FF0004CB6E7AA
:1007E00011F4801F04BF01430020B4F1FD0C88BF49
:1007F000BCF5E06F3FF6AFAEB5EB030C04BFB6EB54
:10080000020C5FEA500C50F1000041EB045170BD46
:100810000EF0004E4EEA113114EB5C04C2BFD4EB73
:100820000C0541EA045170BD41F480114FF0000EF7
:10083000013C90E645EA060E8DE60CEA135594EA73
:100840000C0F08BF95EA0C0F3FF43BAF94EA0C0F76
:100850000AD150EA01347FF434AF95EA0C0F7FF4EB
:1008600025AF104619462CE795EA0C0F06D152EA3F
:1008700003353FF4FDAE1046194622E750EA410623
:1008800018BF52EA43067FF4C5AE50EA41047FF434
:100890000DAF52EA43057FF4EBAE12E753B94AB904
:1008A000002908BF00281CBF4FF0FF314FF0FF3078
:1008B00000F00CB8ADF1080C6DE904CE0BF0DCFCD7
:1008C000DDF804E0DDE9022304B07047704700BFA3
:1008D0002DE9F00791E8F807B2E802105B1854EB35
:1008E0000C04B2E802104D4156EB0C06B2E80210BF
:1008F0004F4158EB0C08B2E8021059EB01095AEBD2
:100900000C0A80E8F80780410130BDE8F007704725
:100910002DE9F00791E8F807B2E802105B1A74EBD2
:100920000C04B2E802108D4176EB0C06B2E802101E
:100930008F4178EB0C08B2E8021079EB01097AEBF1
:100940000C0A80E8F80780414042BDE8F007704794
:100950002DE9F007524290E87800B1E8800717408F
:10096000DB1918EA020854EB080419EA020955EBEE
:1009700009051AEA020A56EB0A0678C090E87800E0
:10098000B1E8800717407B4118EA020854EB0804DD
:1009900019EA020955EB09051AEA020A56EB0A069A
:1009A00078C080410130BDE8F00770472DE9F007BD
:1009B000524290E87800B1E880071740DB1B18EA44
:1009C000020874EB080419EA020975EB09051AEA32
:1009D000020A76EB0A0678C090E87800B1E8800752
:1009E0001740BB4118EA020874EB080419EA02092F
:1009F00075EB09051AEA020A76EB0A0678C080410F
:100A00004042BDE8F00770472DE9F00152424FF037
:100A1000040890E8300091E8C000A31B1340E41ADA
:100A2000F618EB1B1340ED1AFF1830C0C0C1B8F127
:100A30000108EED1BDE8F001704700BF00B592E8B3
:100A4000DC072DE9DC07B1E8805702B4A7FB0251AF
:100A50000A95A8FB020BE7FB6310E9FB62B00B9160
:100A6000A8FB0351EAFB6201E7FB64B5E7FB6605FF
:100A7000E8FB6615CDF830B0A9FB03B6EAFB6316B8
:100A8000ECFB6356E8FB640BE9FB641BEAFB645B6D
:100A9000ECFB646B0D90ACFB0230059CEEFB6250EE
:100AA000E9FB6460EAFB64B0E7FB6431E8FB645196
:100AB000069CE8FB6461E9FB64B1EAFB64010E9308
:100AC000A7FB0432079CE7FB6462E8FB64B2E9FB26
:100AD0006402EAFB6412049CE9FB6453EAFB64636E
:100AE000089CE7FB64B3E8FB6403E9FB6413EAFBDF
:100AF00064230F955DF8049B99E80006DDF80080FB
:100B0000A9FB0854EAFB68B4DDF81080ECFB68042C
:100B1000EEFB6814E9FB6824EAFB6834DDF8048026
:100B2000EEFB6865E9FB68B5EAFB6805DDF8148053
:100B3000ECFB6815EEFB6825E9FB6835EAFB6845C8
:100B40000F96DDF80880AEFB0876E9FB6806EAFB45
:100B50006816DDF81880ECFB6826EEFB6836E9FBCA
:100B60006846EAFB6856DDF80C80ECFB68B7EEFBE4
:100B70006807E9FB6817EAFB6827DDF81C80ECFBD7
:100B80006837EEFB6847E9FB6857EAFB686708B01F
:100B900000BD00BF2DE9F14F87B0FFF74FFFDDF833
:100BA0001C8008F1200888E8FF00FFBC87E87F0868
:100BB000BDE8F08F00B591E89857A3FB035201956B
:100BC000A3FB0401E3FB6420E3FB67100292A3FB99
:100BD0000752E3FB6802E4FB6415E3FB6805E3FBF3
:100BE00069250391A4FB07B6E3FB6926E3FB6A567C
:100BF000E4FB670BE4FB682BE3FB6A5BE3FB6C6BDA
:100C00000490A4FB0810E4FB6950E3FB6C60E3FB79
:100C10006EB0E7FB6721E4FB6951E4FB6A61E3FB2B
:100C20006EB1E4FB6E010592A7FB0832E4FB6A6239
:100C3000E4FB6CB2E4FB6E02E7FB6E12E7FB685369
:100C4000E7FB6963E4FB6CB3E7FB6C03E7FB6E1344
:100C5000E8FB6E230695A7FB0954E7FB6AB4E7FBA4
:100C60006C04E8FB6C14E8FB6E24E9FB6E34E8FBD3
:100C70006865E7FB6AB5E8FB6A05E8FB6C15E9FB0C
:100C80006C25E9FB6E35EAFB6E450796A8FB0976F5
:100C9000E8FB6A06E9FB6A16E9FB6C26EAFB6C36A0
:100CA000EAFB6E46ECFB6E56E8FB69B7E9FB6907A9
:100CB000E9FB6A17EAFB6A27EAFB6C37ECFB6C4737
:100CC000ECFB6E57EEFB6E6700BD00BF2DE9F14FE8
:100CD00087B0FFF76FFFDDF81C8008F1200888E877
:100CE000FF00FFBC87E87F08BDE8F08F30B44FF00D
:100CF000000310F8014B11F8015B013A84EA050486
:100D000043EA0403F5D1A3F101034FEAD37030BCE9
:100D1000704700BF4FF0000310F8012B013943EA80
:100D20000203F9D1A3F101034FEAD370704700BF6A
:100D300030B411F8014B12F8015B6C4000F8014B24
:100D4000013BF6D130BC70472DE9F00791E8F80778
:100D5000B2E802105B1854EB0C04B2E802104D41EB
:100D600056EB0C06B2E802104F4158EB0C08B2E803
:100D7000021059EB01095AEB0C0A8941B3F1FF3318
:100D800074F1FF3475F1FF3576F1000677F1000755
:100D900078F1000879F101097AF1FF3A51F1000187
:100DA0005B184C414D4156F1000657F1000758F1D0
:100DB000000859EBD1795AEB010A80E8F807BDE841
:100DC000F00770472DE9F00791E8F807B2E8021044
:100DD0005B1A74EB0C04B2E802108D4176EB0C0642
:100DE000B2E802108F4178EB0C08B2E8021079EB00
:100DF00001097AEB0C0A89415B184C414D4156F1CF
:100E0000000657F1000758F1000859EBD1795AEB69
:100E1000010A80E8F807BDE8F007704718EB0408FE
:100E200059EB05095AEB060A5BEB070B5FF0000C68
:100E30004CF1000C18EB050859EB06095AEB070AB0
:100E40005BEB070B50EB0C005FF0000C51EB0C015F
:100E500052EB0C0263414CF1000CB8EB070879F13E
:100E600000097AF1000A7BEB040BA841B141A241D1
:100E7000B3416CF1000CBBEB050BB041B941AA4189
:100E8000BB416CF1000C4CF001068CF0020718EB32
:100E9000060859EB6C095AEB6C0A7BEB6C0B70EB98
:100EA0006C0471EB6C0572EB670653EB6C076CEB33
:100EB0006C0C18EB0C0059EB0C015AEB0C025BF1BB
:100EC000000354F1000455F1000556EBDC7657EBB6
:100ED0000C0770472DE9F14F87B0FFF7AFFDDDF844
:100EE0001080DDF81490DDF818A0FFF797FFBDE83B
:100EF000000FFFF793FF03B05DF8048B88E8FF0055
:100F0000BDE8F08F2DE9F14F87B0FFF753FEDDF814
:100F10001080DDF81490DDF818A0FFF77FFFBDE822
:100F2000000FFFF77BFF03B05DF8048B88E8FF003C
:100F3000BDE8F08F2DE9F3472B4FC41D0D1E7B78C4
:100F40008DF8043024F00704BB788DF80530064690
:100F500001A90CBF2046002000F0ECFB97F80080B0
:100F60007B784FF0000A984404445FFA88F8D14631
:100F70005FFA8AF343452DD3E01C20F00304002DD3
:100F800049460CBF2046002000F0E4FCB97820441C
:100F900071B1FB78FA7B033020F00304002D1A4472
:100FA000D2B27B890CBF2046002000F047FD2044D0
:100FB000397B59B1BB784BB1073020F00704002DC5
:100FC0000CBF2046002004F09DFE2044801B02B090
:100FD000BDE8F0873B7AFA79B97978790BF0F4FFBC
:100FE0000AF1010A8144C3E7F00A00208FB572B606
:100FF000194B9D6AE5B9BFF34F8F1849184BCA6862
:1010000002F4E0621343CB60BFF34F8F00BFFDE7F4
:10101000B4FBF6F4DAB20133002CF9D102F110037B
:101020006B440A2603F80C4C32B901A8A847E2E742
:10103000044600230A26EDE7531E04AC54FA83F459
:10104000DAB2C3B2B3FBF6F706FB1733303304F85A
:101050000C3CB0FBF6F0E7E7F00A002000ED00E002
:101060000400FA051FB5104B1A7A8DF80920DA79B9
:101070008DF8082002A89A795B79ADF80C20ADF8BC
:101080000A3003F0C9FA18B1B5210320FFF7AEFF0B
:10109000012301A88DF804300DF011FB08B1B9212E
:1010A000F3E705B05DF804FBF00A002038B505460B
:1010B00080B30AF0B5FD10B94FF0FF3038BD07F02E
:1010C000E7FBB0F5FA7FF7D8154C1648A562002566
:1010D00000F0ECF926222946204684F82C5084F8AA
:1010E0002D500BF057F801236370A3701B2363711D
:1010F00040F21B33E380022323721F236381082302
:101100002373EFF3108472B600F070FD2CB962B651
:101110002046D3E76FF01500D0E72846CEE700BFA2
:10112000F00A00206510000010B5002837D1204CCF
:1011300094F82C3083BB59B1002A33D002390529E9
:101140002DD8DFE801F003101E2C212413786370E2
:1011500001210020FFF7EEFEB0F5803F25DA0123E4
:1011600084F82D3010BD9378E3B1D378D3B11378E0
:101170001A2B17D953781A2B14D91368C4F80530D1
:10118000E6E71378A370E3E713886381E0E7138849
:10119000FF2B07D82373DBE74FF0FF30E2E76FF058
:1011A0002C00DFE76FF01500DCE76FF00B00D9E7EC
:1011B000F00A002070B50D460646F0B1E9B111F015
:1011C00007041AD100F0B0F8D0B130460AF0D4FDCF
:1011D0000D4E214686F82E002846FFF7ABFE0EF096
:1011E0005DFC96F82E00214603F0AAFAFFF73AFFBD
:1011F000012386F82C30204670BD6FF01500FBE708
:101200004FF0FF30F8E700BFF00A002010B5084C9F
:1012100094F82C302BB103F0ABFA94F82E000AF0BE
:10122000C7FD0BF0C0FF002084F82C0010BD00BFEC
:10123000F00A002050B1074B03F1140253F8041BCD
:1012400040F8041B9342F9D1002070476FF015005D
:10125000704700BF28CF0200074B93F82D2010B530
:1012600032B993F82C401CB903F034FA204610BD73
:101270004FF0FF30FBE700BFF00A0020074B93F868
:101280002D2010B532B993F82C401CB903F036FA72
:10129000204610BD4FF0FF30FBE700BFF00A0020F2
:1012A000074B93F82D2010B532B993F82C401CB998
:1012B00003F0DCF9204610BD4FF0FF30FBE700BF24
:1012C000F00A0020074B93F82D2010B532B993F89F
:1012D0002C401CB90DF009FA204610BD4FF0FF302C
:1012E000FBE700BFF00A0020074B93F82D2010B554
:1012F00032B993F82C401CB90DF0FAF9204610BD14
:101300004FF0FF30FBE700BFF00A002007C8024B98
:1013100083E8070000207047200B0020014B9B68EA
:10132000184700BF200B0020024B9868003818BFF8
:1013300001207047200B00202DE9F341284E031DAA
:1013400004463360304604F06BF80228054607D1A6
:10135000234920460BF0FFF8284602B0BDE8F08193
:10136000042836D13378072B18D13E2000F04EF8F0
:1013700078B9F378327901A943EA02236846ADF8D7
:1013800000300BF0C9FB0028DCD053210820FFF708
:101390002DFE052000F07AF80028EAD031462046DC
:1013A0000BF03EF9B0F5817F01D37221EEE7002802
:1013B000C8D0277894F80280384600F027F8002833
:1013C000C0D03E2FC8D1404600F060F80028C3D1FD
:1013D000B8E70828C0D1024920460BF0EBF8BBE77C
:1013E0002C0B0020074B4FF0FF3141F6FF72C3E991
:1013F000001205490022C1E900221F21C3E902129F
:10140000704700BF00000020700B00203F280CD860
:1014100001380B4BC0F3421200F01F0053F822308A
:1014200023FA00F000F001007047FF2806D0403892
:10143000C0F34212034B00F01F00EFE7012070479A
:1014400000000020700B00200146074B006849682F
:101450001A4603C240F48C221A6041F0107242F422
:10146000FF625A60704700BF000000200246024B36
:101470000068516803C37047700B00200246024B9E
:101480000068516803C37047080000200138064B0C
:10149000C0F3421203EB820300F01F009B6823FAA3
:1014A00000F000F00100704700000020014B1860C0
:1014B000704700BF780B002010B5FFF793FF0CF0CA
:1014C00073FD034B1B68044603B19847204610BDCB
:1014D000780B00200B880288F0B5C3F30E049EB28F
:1014E00004F11803C57CC35A05352A442B4497B22E
:1014F00013FA82F3013B4288B3FBF7F313FB074374
:101500009BB29A42044A93BF22EA06033240134335
:101510009BB20B80F0BD00BF0080FFFF10B5114BE8
:1015200000EB41041A786389B3FBF2F303FB022357
:10153000013A1A44B2F5706F027928BF00231A44A9
:101540008378B2FBF3F0194403FB1020091AB1FBB6
:10155000F3F003FB101313446FEA43436FEA534362
:10156000638110BD7C0B002010B5104BC0B15A78C0
:10157000022A04D040F259111720FFF737FD032249
:101580005A70026812F0070102D04FF4AF71F3E70E
:101590005C685A6022440260C3E903119A6010BD7E
:1015A0000122C3E901005A70F9E700BF7C0B00205B
:1015B0002DE9F041254E96F801E00EF0FD0CBCF14E
:1015C000010F04D040F273111720FFF70FFD91F8BF
:1015D0000680B8F1080F02D940F27511F4E7CF790F
:1015E00097B34546022D726838BF02257B1D5C000B
:1015F00002EB43036A1E13446D422B408D88454421
:10160000013DC8F100022A404FF6FE75AA4202D9F8
:101610004FF4C071D8E7BEF1030F12D106EB800082
:101620001C1BC56815B140F28511CDE7C460A770D9
:10163000228084F803C0087A09682071080CE080D1
:10164000218107FB02337360BDE8F0817C0B002031
:101650002DE9F041364C6378012B65D0032B04D083
:1016600040F295111720FFF7C1FCD4E901329A42EC
:1016700002D04FF4CC71F5E7A44600235CF80C6F60
:1016800023701D4601229E465CF82210571E49B168
:1016900008798A78FF2829D181F804E095423CBF77
:1016A000D5B201230022002FEED003B125702569A9
:1016B00025B3002640F6FF67AB78F1B28B421DD907
:1016C00005EB410328465F81FFF728FF0136F3E76A
:1016D00076B196F8048080450CD1B0780244FF2A98
:1016E0000AD903B125704FF49A71BBE7002FEFD0F0
:1016F0000020F3E73846F1E70871CFE7E56875B1F8
:10170000002640F6FF67AB78F1B28B4207D905EBB4
:10171000410328465F81FFF701FF0136F3E7042309
:1017200063700020BDE8F081022360686370F9E710
:101730007C0B0020F0B585B01B4E009004460D4692
:1017400030B17378022B02D00020FFF7F3FF684618
:10175000FFF70AFF154A2B78019208274FF43872D9
:10176000002001A9ADF808208DF80B308DF80C0091
:101770008DF80A70FFF71CFF6B780D4A01928DF807
:101780000B304FF48872FF2301A90120ADF8082027
:101790008DF80C308DF80A70FFF70AFFFFF758FF3D
:1017A0007068001B05B0F0BD7C0B00203FFA000004
:1017B000D7D20000F8B54FF6FF730380184B03EB48
:1017C00081030546D868B8B186780379B3FBF6F291
:1017D00006FB1233DBB219460A1D00EB4202B2F9D6
:1017E00002705488002F09DB0131B1FBF6F206FBD1
:1017F0001211C9B28B42EFD10020F8BDFF29FBD0F6
:10180000C4F30E03C4782B8024B940F2C7211720FB
:10181000FFF7ECFB5380BDE8F8400BF0B4BB00BF12
:101820007C0B00201E4B03EB810370B5DC68054682
:101830004CB3B0F5706F04D340F2D5211720FFF7F9
:10184000D5FB014620460BF080FBFF28014604D063
:101850002046BDE870400BF096BBA078B5FBF0F3D6
:1018600000FB1353DBB219460A1D04EB4206B6F91E
:101870000260002E09DB0131B1FBF0F200FB121116
:10188000C9B28B42F0D1002070BDFF29FBD08B4242
:1018900004EB42021CBF0023E3705580D8E700BF71
:1018A0007C0B0020094B03EB810310B5DC6801467B
:1018B00020460BF04AFBFF28014604D02046BDE835
:1018C00010400BF060BB002010BD00BF7C0B00205F
:1018D0000F4B03EB810370B5DC68014606462046DA
:1018E0000BF033FBFF28054610D0014620460BF0D5
:1018F0004AFBE2882389014643EA0243304698477F
:1019000020462946FFF70AFE002070BD0320FCE7B1
:101910007C0B002038B50E4B827903EB8203044622
:10192000D86808B9022038BD8278E1799142F9D2AD
:101930004B1CE37100EB41035D89B3F90A30002BC6
:10194000F3DBA5800BF01FFB20600020EBE700BF5E
:101950007C0B002070B5044610F003000E4603D047
:1019600049211820FFF742FB0BF093FA054624B1FA
:101970000348314604600BF08CFA284670BD00BF66
:10198000900B00202DE9F04F1E4C85B09246226846
:10199000BDF83CB098468146BDF838300D461AB9BE
:1019A0005B211820FFF722FB1A460A2150460393B9
:1019B0000BF01AF95A460646092140460BF014F975
:1019C0003118074620680BF08FFA039BC9F8000016
:1019D00018B9286005B0BDE8F08F84192C60D9F8DB
:1019E00000000093524631460A230BF0AFF82868F6
:1019F000CDF838B009234246394605B0BDE8F04F6E
:101A00000BF0A4B8900B002070B50E4604460BF006
:101A1000F4F8054630460BF0F0F8044B2A1821463E
:101A20001868BDE870400BF089BA00BF900B002029
:101A3000014B18680BF04BBA900B0020F8B511441D
:101A40001D4EC9B210F00305317003D04E2109209C
:101A5000FFF7CCFA1F2B19D89B009BB2033323F05E
:101A600003039BB208B17060338101EB8104766897
:101A7000E2004FF0010C00EBC404EFB2B94212D8FF
:101A8000D01D03FB010020F00700F8BDFF2B4FEA3B
:101A9000430204D9FF339342DFDB93B2DEE77C2AB3
:101AA000FBDC7C23DAE710B186F800C074600135F6
:101AB00028361C44E1E700BF940B002038B5144AD7
:101AC000147853680021C8B2844203D8A9210920A0
:101AD000FFF78CFA1846013105782833002DF2D033
:101AE0000124128944700021446881708161C161C0
:101AF000920800F12001051D21F8022B994245F8BA
:101B0000044B1444F8D100234361037038BD00BF77
:101B1000940B00202DE9F8434B7880460C4602F0E8
:101B2000040602F0FB07D3B1DFB12F4BD4F80490C9
:101B30001D89BFBB01236370AD08A761E76104F194
:101B400020034A46211D04F1280023F8025B984235
:101B500041F8042B2A44F8D10023636101E0002FEF
:101B6000E3D0002E4FF0FF0318BF0226A370A31985
:101B70001B7D032B03D1022F1CBF0136F6B2A31924
:101B800001221A7506F10C0204EB8606002324F8E4
:101B900012307268A370C8F80020A8F804304046DC
:101BA000BDE8F883002114226170A0180AF0F2FA4F
:101BB000B5F5FF7F0FD26B08ED1AADB209EB050248
:101BC000C4F804902584A2606384C4F80C90A584B2
:101BD0002261E384C5E7B5F5EE6F4FF0FF03EBD963
:101BE00040F27265EAE700BF940B0020134B01221C
:101BF00000214FF0FF309A60C3F80012C3F80803C9
:101C0000C3F80015C3F804259A60C3F80803C3F8A5
:101C10000015C3F804250A490A4A03F580334FF436
:101C20000040C3F80825C1F88000BFF34F8FBFF311
:101C30006F8FC1F88001C3F80825704700F000409D
:101C400000E100E00000F63F0A461A2302F8033BD9
:101C50000448C368C1F80330036953604369936063
:101C6000704700BFA00B0020024B5A8C02435A84DD
:101C70005B6A1847A00B0020014B00215B6A1847E4
:101C8000A00B002010B5114C05F0A2FF05F000FCE0
:101C9000208DFFF7F1FF237E6BB122460C4952F8ED
:101CA0000C3BE36063685360A368936004F1190020
:101CB00002220DF01CFAE36A94F82A1094F82B0023
:101CC0009847002384F8303010BD00BFA00B0020DF
:101CD000491C0000034B93F830300BB1FFF7D2BF23
:101CE000704700BFA00B002070B51D4CA56B236C86
:101CF000E36395F8A330064694F844000BB1043032
:101D0000C0B295F86D102EB9FF2803D195F86C304C
:101D10008B4201D005F026FE95F8A330D3B1A06C1C
:101D200006F0D8F8012384F86830D5E94023A16C87
:101D3000E06BC4E9182305F069FB16B9304606F0DC
:101D400007F995F86C10002006F04CF9022384F88E
:101D5000303070BDE06B06F0BDF805F099FBECE7A4
:101D6000A00B00202DE9F743404C94F83030A66BCF
:101D7000012B05460F465FFA83F804D040F25C4120
:101D80002720FFF733F996F890303BB1002186F811
:101D900090100420FFF768FF86F89280A16F0B78FF
:101DA00003F00303032B05D196F8963013B90220F4
:101DB000FFF75AFFA26F137803F00303032B03D03E
:101DC0005378002B3ED1012386F8963096F8A33045
:101DD000B3B1D6E94001A36B94F84490C4E918016B
:101DE0004FF0010893F86D0084F868800BF0DDF97E
:101DF0000022034600921E494A46404605F0C0FABA
:101E0000DDB9D7B1E36F28469847B0B194F82A30CE
:101E10009BB994F88030D906C3F300125CBF236CE1
:101E20001D78D4F884305CBFC5F30015C5F10105F9
:101E300053B9B4F888303BB132B903B0BDE8F043D0
:101E4000FFF720BF0223BFE7638C9A0709D5A36F72
:101E5000DB78022BF1D1002003B0BDE8F043FFF79F
:101E600043BF002DE9D1002BF5D0E6E7A00B002001
:101E7000F00B002008B5094B93F83020022A04D05B
:101E800040F23D212720FFF7B1F8DA7A42F0010253
:101E9000DA72BDE80840FFF7F5BE00BFA00B0020D6
:101EA000044B93F8302002F0FF000AB9187670470F
:101EB0000C207047A00B00200A4B0B4A70B5064659
:101EC0000D461A60FFF7ECFF18B1DF212720FFF75E
:101ED0008DF8064C012104F18A000CF0F9FF26640C
:101EE000A56470BD4000002094260000A00B0020D7
:101EF000024B012283F8AC20704700BFA00B0020EA
:101F00002DE9F043814C85B002AE86E8030094F8D9
:101F100030100C9F01F0FF0511B90AB103B127B9C8
:101F20004FF4A8712720FFF761F896E8030004F149
:101F3000340C8CE8030084F8AC5084F82A5084F800
:101F4000AD5084F82B5084F8AE5065842585A56B80
:101F5000E3676262E76205F043FD05F099FA95F9DF
:101F6000700005F0C9FD686A05F0A6FFE86905F094
:101F7000C9FD95F8B30005F0EBFDA36B93F80C32A7
:101F80000BB105F01BFD95F86D10012005F0B0FEBA
:101F9000002800F0B7805E4B5E4E186805F092FF97
:101FA0002B69C4F8B0306B69C4F8B43005F58C7790
:101FB00005F5847318685968324603C20833BB427A
:101FC0001646F7D1D5F81821C4F869205A68524B43
:101FD0005A60A36B93F89D20A2F12501012993F883
:101FE0006C100E4603D993F89E00252856D193F81D
:101FF000B6322BB1012E03D0012B14BF02260126CD
:1020000005F13407314638460DF005F931460CF03C
:102010009CFDB5F8403095F86D10834228BF03460B
:10202000384684F8B8300DF0DFF895F86D1095F863
:10203000A360B5F84880082908BF04210CF085FD8D
:102040000EB9043080B2404528BF404695F8A33011
:102050005FFA80F884F844809BB1D5E9406795F831
:102060006D004FF00109C4E9186784F868900BF01F
:102070009CF800220346009226494246484605F055
:102080007FF90120FFF730FE244BD3F8503523F0C1
:102090000803032B2AD14FF4FD7143E7203A012AAC
:1020A0000CD8232893F83E210AD012F0010319D14D
:1020B0009207A5D5012918BF0226A1E723280DD133
:1020C00093F83E2193F86530134013F001020BD1D1
:1020D0009B0795D5012908BF0E46ECE7042908BFE8
:1020E00008268DE71E468BE7164689E70023236006
:1020F0006360A360B5F8943063802B88238095F8E3
:10210000B330237105B0BDE8F08300BFA00B002001
:1021100040000020F00B0020090C002000100040BF
:1021200008B50C4B93F830201AB9BDE80840FFF70A
:10213000A9BD93F83020022A04D040F213212720B1
:10214000FEF754FF9B6BD3F82002BDE8084005F072
:10215000D3BE00BFA00B0020014B1876704700BF14
:10216000A00B0020014B93F8AE007047A00B00209D
:10217000024B188DC0F38020704700BFA00B0020D9
:10218000014B93F8AD007047A00B00202DE9F341FF
:102190001E4D8207AC6B06460F4622D5D5F884301B
:1021A00023B940F24D412720FEF720FFB5F88820E3
:1021B000E96B1846033291F8018009F073FF0DF1C5
:1021C000020201A9E863D5F8B4000AF058FE0198AC
:1021D0000AF03FFE012238604146D5F8B4000AF00B
:1021E000E4FDF3070ED5D4E94032013342F1000299
:1021F000C4E9403294F89830012B0CBF002301232E
:1022000084F8983002B0BDE8F08100BFA00B002038
:102210002DE9F04F9C4C002387B0CDE9043394F8AE
:102220003030A76B022B8146884604D040F2CF4164
:102230002720FEF7DBFE238D5B0606D44020FFF748
:102240001BFD238D43F04003238597F8A330B9F19C
:10225000000F00F00A81A3B105F048F905F02CF950
:1022600078B9E36B5A7862B11B7897F89820C3F37A
:10227000C0039A4205D1012384F82B30FFF702FDF9
:1022800047E1E36B5978A4F8881011B3D4F8B4008F
:102290000AF061FDC4F88400238D97F8972043F479
:1022A00080732385E36B1B78C3F380039A4200F0AD
:1022B000B180A56B95F89630002B3ED0022B12D141
:1022C000D4F8B00004A90AF0DDFC28B940F2CB3103
:1022D000AEE7C4F88410DFE7D5E93E32013342F1BE
:1022E0000002C5E93E3295F89230002185F896103B
:1022F00023B185F892101020FFF7B6FC95F89130C5
:102300009BB1002685F8916002F008FC10B940F2FC
:10231000E2318DE731460820FFF7A6FCD5E93E32D1
:10232000013342F10002C5E93E3295F89730012BA6
:102330000CBF0023012385F89730238D43F480637D
:1023400023854FF0000BE16B97F898200D78C5F3CB
:10235000C0039A427ED105F00305032DA66B5BD026
:10236000002D64D196F89830013B18BF012386F800
:102370009830E36B5B7833B1D6E94032013342F1F8
:102380000002C6E9403297F8A23093B1D7E93E2364
:10239000A16B002691F86C0084F86860C4E91823EA
:1023A0000AF003FF394900960346FB22304604F049
:1023B000E7FFB8F1000F6BD194F8AD30012B67D86F
:1023C000E36F01209847002862D094F82AA0BAF160
:1023D000000F5DD1A66B94F8443096F8A3208DF8D9
:1023E0000D80002A40F09880FF2B96F86C1003D1E6
:1023F00096F86D308B4202D0FF2005F0B3FA96F8C4
:102400009630032B00F22F81DFE813F089000E01D4
:1024100011012401CB4696E7238D012043F400638C
:1024200086F890002385FFF71FFC00259AE74B787C
:10243000002BFAD0228DD4F8845042F40062228519
:10244000002DA0D0FB2B07D894F8AC305BB1202036
:10245000FFF712FC002596E794F82A3043F01003AA
:1024600084F82A30F6E74D467CE70BB105F074F8A6
:1024700094F8AD30013384F8AD30238D002543F45A
:1024800000732385AB467EE7A00B0020F00B0020F5
:1024900005F0C8FD4FF001081DB105A90220FFF7A6
:1024A00075FEBBF1000F0DD0B4F80720B4F805306D
:1024B0001343B7F8942013431EBFB4F80930013317
:1024C000A4F80930B9F1000F00F0D580B4F8053058
:1024D0000133A4F80530002384F8AD30694803F0D7
:1024E0004BFB049840B10AF0B4FCA16B002343728B
:1024F000082201300CF0E9FD059B33B1A16B0022ED
:102500001A72059810220CF0E0FDB8F1000F7FF46C
:10251000B5AE07B0BDE8F08F0433DBB264E794F8E2
:10252000B830ADF80E305848A6F85C3002F0E6FA44
:1025300000285DD0A16F8020FFF796FB012386F86D
:10254000913096F89730A26FDB0003F00801137802
:1025500003F0F3030B4396F89810890001F004018F
:102560000B4323F0100103F00303032B117002D17E
:10257000D378022B0FD0D4F8B0000AF0CBFB40B9CF
:10258000A36F1B7803F00303032B04D002F0DCFAE3
:1025900008B94FF0100AA06F03784AEA030A80F8DE
:1025A00000A096F8A230002B60D04378002B5DD0BD
:1025B000A06C05F08FFC002384F86830D6E93E2338
:1025C000A16FA06CC4E9182304F020FF96F86D10E9
:1025D000012005F007FDA26F1188A4F88010917802
:1025E0002A4A012384F8AE30917084F8303053E7E2
:1025F000D4F8B0000DF10D020DF10E010AF01FFB31
:10260000A06788B196F8DB3073B99DF80D302BB90F
:1026100003808370A06F01210CF05AFCBDF80E10EE
:10262000A06F0CF021FD8CE7194BA36789E7B6F882
:102630005C30D4F8B000ADF80E300DF10D020DF1A4
:102640000E010AF0FCFAA06700287FF47AAF40F28E
:10265000D621EDE50C4802F051FA00287FF471AF65
:1026600040F2DF21E4E54FF43B71E1E505F032FC97
:1026700004F00EFFAAE7B4F807300133A4F80730DE
:102680002CE700BFD40B0020180C0020200C0020E9
:102690002A0C0020751E000011220000651D00009C
:1026A000D51C000038B5074D044600F151012868DB
:1026B0000CF083FB94F850102868BDE838400CF00B
:1026C0008ABB00BF5C0C0020F8B504460E46658846
:1026D000407F15F00401134618BF04F15F01324634
:1026E00002F0E8FBC20705460BD5012384F8503001
:1026F000607F02F043FC0368C4F851308388A4F87B
:102700005530AB070CD5094E0127306884F85E7050
:1027100004F15F010CF058FB306839460CF064FBA3
:1027200085F00400C0F38000F8BD00BF5C0C002001
:1027300038B5C38D0E4D0133C385AB7C04462BB138
:1027400005F036FC04F0C4FD0023AB7400232B71AC
:1027500094F869302BB101212046BDE838400BF0D8
:1027600082B9637C13B1E28D9A42F4D20021F3E77F
:102770005C0C002070B5294C2379022B07D02379FB
:10278000032B04D040F6EC412D20FEF72FFCA0B91E
:102790000125A37C1BB105F00BFC04F099FD002D75
:1027A0003AD0E0690BF0D7F8002830D005F010FAE5
:1027B000236ABDE870409B6818472168E26911F8F8
:1027C000095B02F15103E80992F850200CF0E8F897
:1027D0000028DDD0206800210CF02CFB0028D7D089
:1027E0002379E069022B05D02379032B02D040F630
:1027F000C541C9E72379226A03F180435269023B4C
:1028000005F00F0152F8233098470546C1E7E0690B
:10281000BDE87040FFF78CBF70BD00BF5C0C0020AE
:102820002DE9F04104460E4619B300F1280528466B
:102830000AF0CDFEA0B963881A072DD528460AF004
:10284000DDFE074628460AF0C2FE381AC0B20AF07A
:10285000E5FE594A93680344284693600AF093FEC4
:1028600028460AF095FE05F073F92179252005F038
:1028700079F8514D94F85E702868002303806388CE
:10288000103B0D2B61D8DFE803F05E605A0C603F0F
:10289000606060606060603F2046BDE8F041FFF727
:1028A00047BF002102F076FC2A68137823F020034A
:1028B00043F0200313702046FFF7F4FE638823F0F3
:1028C00008039BB2152B05D094F83820616B28685B
:1028D0000CF091FA286805F0FDFA04232B7136B14B
:1028E0006388102B36D12179002005F037F96388F1
:1028F000103B0D2B5AD8DFE803F05C595353595362
:102900005959595959595953012102F043FC286822
:10291000037823F0200343F02003037047B104F150
:102920005F010CF051FA012128680CF05DFAC2E752
:1029300004F158010CF048FA94F85710F4E7062116
:1029400002F028FCB7E70221FAE740F249612D20A6
:10295000FEF74CFB04F128084046EF680AF04EFEF3
:10296000064640460AF033FE013E301A61882822AE
:10297000C0B200F09FFC63881B07074406D5AB6814
:102980001F440AF048FE3844C4F8D0002279394682
:10299000002005F015FA0028A9D140F66151D6E7CC
:1029A00021790120BDE8F04105F01CBB40F67551CE
:1029B000CDE7BDE8F08100BF5C0C002038B543884E
:1029C000102B044604D1BDE838400121FFF728BF91
:1029D0000B4DAB7C23B104F061FC402005F0DCFA28
:1029E000286805F077FA608810F0040002D1217998
:1029F00005F0F8FA002005F0ABFA02232B7138BD80
:102A00005C0C0020024B0121D869FFF709BF00BF11
:102A10005C0C002010B5134CA37C1BB105F0C8FA68
:102A200004F056FCE0690AF096FF70B12379E06982
:102A3000022B0FD12379226A03F18043D268023B33
:102A4000BDE8104052F823301847E069BDE8104057
:102A5000FFF76EBE2379032BECD040F6F4312D2026
:102A6000FEF7C4FA5C0C002018B1084BD869FFF7D8
:102A70005FBE51B1054A1379116AD069096903F142
:102A80008043043B51F82330184770475C0C00200A
:102A90002DE9F043032985B0054690467ED090F895
:102AA000683003F0FF02002B7DD1052904D16B882B
:102AB000DE0760D5002A5ED10127DFF8F09099F893
:102AC0001260B6B10BF0A1FF082888F8000014D0FE
:102AD00002AA0DF1070102F0BDF920B940F63D71DF
:102AE0002D20FEF783FA9DF8070002A90CF092FE54
:102AF000064698F80030082B08D1D9F8001011F8D4
:102B0000030BC0F380100CF085FE0646D9F80010C8
:102B100095F8572011F8030B05F15803C0F3801006
:102B20000BF03EFFD9F80010044611F8030BC0F378
:102B300080100BF060FF814602F032FA014640B18E
:102B4000B9F1080F1BD0484602F04EF980F00101A0
:102B5000C9B298F80000082815D094B96B7F1C1AE8
:102B6000604260416B885A0706D421B996B9EB7C64
:102B700093B1BB4210D0002005B0BDE8F083002126
:102B8000E7E70120EEE714B181F00104E4B204F0BC
:102B90000100E7E73046EFE70120EDE743889B07B8
:102BA000E9D5022789E70529E5D180E75C0C0020FB
:102BB000032973B5054604D0052955D0012002B07C
:102BC00070BD08230DF107028DF80730FFF760FF95
:102BD0000028F3D02B7C294E0BB39DF8070095F805
:102BE000B630E3B92B7885F8B730082805F1B9027B
:102BF0002BD005F1B80102F02DF920B940F6BA71D9
:102C00002D20FEF7F3F995F8B83043F0020385F86C
:102C1000B8301B49022205F1AE000CF056FA3068BC
:102C200000240421048002F0B5FA2846FFF73AFD9B
:102C300095F84020E96B30680CF0ECF8306805231B
:102C4000337105F047F92046B9E73068034613F8B9
:102C5000031BC1F3801185F8B810D0F80310C5F834
:102C6000B9109B889380D4E7064B1B6823B1984723
:102C700080F00100C0B2A2E71846A0E75C0C00207B
:102C8000E1D10000440000202DE9FF4708230DF1A9
:102C90000702052104468DF80730FFF7F9FE0746C5
:102CA00020B90027384604B0BDE8F0877B4E316874
:102CB000F27C11F8030B06F11403C0F380100BF043
:102CC0006FFE80460028ECD1256A326895F8A53061
:102CD000117803EA511303F0010385F8A530D2F807
:102CE0000F30EB61537D117D1B0443EA0123D17C3E
:102CF0000B436B62B2F819000BF071FF3368A861E7
:102D000081460146987D0BF06EFF3368A8854946E1
:102D1000B3F817000BF070FF3368A862B3F81B20FC
:102D20002A84B3F81D206A8493F8242002F01F023D
:102D300085F8B120D3F81F00029093F823308DF866
:102D40000C3002A905F1A5000BF08DFF336893F854
:102D500024305B0985F80D3240F20113A5F86C3080
:102D60004FF0FF0A05F1340085F86EA0414602F0ED
:102D70000FFC284694F912100BF027FF256A84F8FF
:102D800073802B88A4F8743084F891A04FF6FF73F9
:102D9000A4F89230A8699DF807900BF01AFF2B8CCD
:102DA000A4F88C306B8CA4F88A00A4F88E3095F8C7
:102DB0000D3284F89030237F04F17E0283B394F8BF
:102DC0005030012B2CD194F8563003F0C003402B27
:102DD00026D1D4F85130C4F87E30B4F8553030687C
:102DE00093800346B9F1080F13F8032BC2F3801246
:102DF00084F87720D0F8030004F1780204F184010C
:102E000044D0C4F884009B888B80484604F1770145
:102E100002F020F840B940F64A412D20FEF7E6F8CE
:102E20000023C4F87E30DAE794F8773043F00203E9
:102E300084F877301A49022204F16A000CF045F94F
:102E4000236A18491A88A4F8AB2093F8A53084F8AF
:102E5000AD30022204F1A2000CF037F9124B206AC7
:102E60001B68002232710BB1214698473368226AF1
:102E7000D3F80310C2F80310B3F80710A2F8071034
:102E80001B78226AC3F3801393700BE7A0679B88BB
:102E900093800023C4F884308B80CBE75C0C002047
:102EA000F9D10000CBD100004800002010B50B4B39
:102EB0001A798AB11A79DC69022A02D01A79032AAE
:102EC00005D19B7C1BB105F073F804F001FA204694
:102ED000BDE81040FFF72CBC10BD00BF5C0C00200B
:102EE00010B50948037903F0FF0453B918222146AD
:102EF000043009F04FF905F05BF804F0E9F92046D9
:102F000010BD0C24FBE700BF5C0C002010B5094C81
:102F1000002323712060FFF7E3FF20B140F21E3150
:102F20002D20FEF763F8236A13B940F22131F7E749
:102F300010BD00BF5C0C0020014B024A1A627047B2
:102F40005C0C00205C320000034B044A1A60044B06
:102F5000044A1A60704700BF44000020892C00001A
:102F600048000020153E00002DE9F041067DB31E0B
:102F7000DBB2012B04468CBF4FF000084FF0010874
:102F80007EB3B71E18BF0127012B36D800F15801B8
:102F900090F857000BF02FFD082805462DD001F0C2
:102FA0002FFF58BB657784F81C8084F8507001F0BF
:102FB0004BFF05460CF0FAFD174BA5FB03351B181C
:102FC00045EB01050022C4E9123584F85E20114664
:102FD0002046FFF779FB70B940F2B6412D20FEF78D
:102FE00005F83746082504F15101002001F0D2FD13
:102FF0000028D7D10020BDE8F0810825022EF2D0AC
:10300000E37E002BF6D0D4F81530C4F85130B4F874
:103010001930A4F85530C5E740420F002DE9F041C2
:10302000604D2B7986B0044603F0FF07002B40F07B
:10303000B7800378FF2B00F0B3805B4B02935B4BB0
:1030400003935B4B04932B6A6F715B6880F8697024
:1030500002A805932F82AF60AF7104F033FF04F034
:10306000BFFC04F0A5FF04F033F9524804F04AFD18
:1030700004F12806504804F01FFF30460AF083FA96
:1030800030460AF085FA04F063FD2179252004F02A
:1030900069FC94F9120004F02FFD2179384604F000
:1030A00027FEE86028B901232B71384606B0BDE839
:1030B000F08104F13401206B09F0E4FF04F13C01DC
:1030C0008046206B0AF005F80646B8F1000F03D0E1
:1030D00094F82430002B3DD10EB194F82560237F65
:1030E00013B963885A070AD5D4E912126FF0004366
:1030F0009A4208BFB1F1FF3F2ED1002E34D128688B
:10310000033001F0C5FE6388A874DB07CDD500232A
:10311000266ACDE90033FF23EB7406F10A086846FE
:10312000FEF7F8FB0028C0D1009CA642F7D0727AC7
:10313000607A434604F10A010BF032FC0028EED01D
:10314000A378EB74D4F8030068611C4BB4F8072033
:103150009A80AAE70126C2E70CF028FDD4E91223E1
:10316000904271EB0303C8D3012206EA0201204614
:10317000FFF7AAFA68B101F067FE06460CF016FDEB
:103180000F4BA6FB03361B1846EB0106C4E91236AB
:10319000B5E7002EB3D040F614212D20FDF726FF11
:1031A0000C2782E75C0C0020152A00007527000020
:1031B000692A0000D6BE898E55555500700C002036
:1031C00040420F0038B50546FFF728FF044638B9DE
:1031D000044B1B79012B03D001462846FFF720FB47
:1031E000204638BD5C0C0020024BD8611B6A1B686E
:1031F000184700BF5C0C002008B5044B1B79012B5D
:1032000001D1FFF795FA002008BD00BF5C0C00203B
:1032100043881B0710B5044612D5036A0A493C22AD
:1032200080F873201B88A0F87430FF2380F8913059
:103230004FF6FF73A0F8923002226A300BF045FF80
:10324000012384F8693010BDF9D10000B12B0000D2
:10325000BD29000059D2000053D20000C531000042
:10326000AD2E0000052A0000583200005032000048
:103270004C3200000138022808B503D9CA212F209A
:10328000FDF7B4FE13290A4B05D811290CD81029D3
:1032900007D0D821F3E71529FBD103EB4003D888E9
:1032A00001E033F8100008BD03EB40039889FAE70A
:1032B000C497020008B5431EDBB2012B05D91D29B6
:1032C0001ED0EE212F20FDF791FE10390D291BD8BD
:1032D000DFE801F0071A11111A0C1A1A1A1A1A1A31
:1032E0001A160B4A02EB4303588A08BD084A02EB40
:1032F0004303D88AF9E7064A02EB4303588BF4E705
:1033000040F25A335843F0E74FF48171DAE700BFD7
:10331000C49702000B2808B504D940F24F310620AB
:10332000FDF764FE014B33F8100008BDE49702007E
:103330002DE9F04F8BB0044615460293894690F86C
:103340006DB00BF01DFA064694F80D02FFF7E2FF90
:1033500094F89E300393064485F00103B6B20593BA
:1033600055BB94F85432032B26D1039B0D2B23D14C
:10337000B4F8B4324B451FD1D4F85C32C4F84832AB
:10338000A369B4F82622C4F84C32B4F89A32134434
:10339000C4F85032204603F0F1FED4F8B832A362EC
:1033A000B4F8B632A385D4F8BC32A361D4F8C032E5
:1033B0002362022384F85432B4F89872B4F89480EB
:1033C000A9EB07073FB204F51C73A9EB0808002F0F
:1033D00004930FFA88F86EDAD4E9A2234746C4E9C9
:1033E000A42301230493CC4B1B7803F0FF05002B8F
:1033F00054D005F0CDFA054600284FD0B4F83C3241
:10340000012B6DD994F85432022B69D094F86A528A
:10341000002D65D194F80D02FFF77CFF94F854322B
:1034200000F5C866012BB6B2D9B24CD194F8A130E0
:10343000D4F828A0032B40D1D4F84C52554431463F
:10344000D4F84C0205F0FAF9D4F84832C4F848022E
:10345000A0EB030AD4F850323146284603FB0AFA9F
:1034600005F0ECF9D4F85852C4F85802451B31461F
:10347000A06905F0E3F9AA44B4F82652D4F8503212
:103480004544ED1BDB432B44D4F85C52451B05FB44
:1034900003A50123C4F85C0284F86A3294F854321C
:1034A000DFF874A2032B00F28281DFE813F01B0027
:1034B00016016B003701029B94E728460BF06FFB67
:1034C00000EB0A05BBE7A069314605F0B7F9B4F88F
:1034D0002652D4F85C324544ED1BC31A5D43D8E74D
:1034E0000025DBE7012100200BF059FB8046A06A94
:1034F0003146404405F0A2F93146C4F85802A069AB
:1035000005F09CF907A9C4F85C0208A804F092FD34
:10351000079B0093D4E9A401DDE9082308F064FACD
:10352000834620460AF0B4F9D4F8A032A66A94F88B
:103530006D001E4404F0AAFED4F85812A6F120072C
:103540007F1A00F523404FF47A734744A130B0FB53
:10355000F3F0A38DA7EB0B0730313F1A03EB4101CA
:1035600094F86D000AF05EF8D4F8A032FB1A22300D
:10357000B3F5C87FCAF8040055D840F2ED413020B9
:10358000FDF734FDA36AD4F84C023146184405F027
:1035900055F93146C4F85802A06905F04FF9C4F84E
:1035A0005C0220460AF074F9B4F82632A66AD4F810
:1035B0004C72002B40F08C80029B002B00F0888026
:1035C00094F86DB0584604F061FE3744D4F8A42254
:1035D000D4F8583204938046203F5846174404F0EC
:1035E0004DFE049BFF1A3F1A08F5234808F1A10875
:1035F0004FF47A70B8FBF0F8A7EB0807D4F858122C
:10360000D4F84832D4F8502294F86D00303102FBDF
:103610000311A38D03EB41010AF004F80123CAF85A
:10362000040084F85432A669D4F85C32A6F21B2652
:10363000F61ADAF804309E4228BF1E466E23A4F81C
:103640007832D4E9A4327F1BDF1942F100024FF037
:103650000008C4E9A072C4F8206284F8708204F102
:1036600034000BF0BFFDB4F81012A4F89892D4E91E
:10367000A023A1EB09090FFA89F9C145C4E9A423E4
:10368000C8BF022384F87A82C8BF84F87A32039BC9
:1036900006440D2BC4F87462029B00F08B80002B53
:1036A00040F0898094F85432002B00F0A280A16988
:1036B000D4F85C3204F51C70C91A0BF015FA80B20C
:1036C000002800F09680149B03B118800120A0E030
:1036D000D4F8580237443F1A90E7D4F85C22A36923
:1036E000D4F85002D4F848129B1A5F43B4F826323B
:1036F0009844C3439844D4F85832303301FB003324
:10370000A18D94F86D0002FB083301EB430109F031
:1037100089FFCAF8040086E7800C0020A369D4F86A
:103720005C021B1A5F4394F89D30252B03D094F85C
:103730009E30252B0AD1B4F8B432A9EB03031B0445
:1037400004D494F8B732002B18BF9B46049B03B3F4
:10375000B4F82632EBB9D4F8A43213B940F23F5191
:103760000DE794F86D0004F091FDD4F8A4320646FC
:10377000203B94F86D00049304F080FD049B1F44EB
:10378000381A06F52343A1334FF47A77B3FBF7F7E2
:10379000C71BB4F82612D4F85C3241445943303187
:1037A0004900584609F03EFF1B4B58603BE740F28A
:1037B0005451E4E6EBB1B4F83C1221B3B4F83E2224
:1037C00094F84032A4F83E2202FB0333994202F1FE
:1037D00001000EDD94F87A325BB1002384F87A326E
:1037E000A4F83E0201F05CFF00F00700013084F80D
:1037F000400294F89C0204F51C7107F0EFF820B920
:1038000040F29D51BBE60A46DAE7059B84F8683230
:1038100000200BB0BDE8F08F800C00202DE9FF41A7
:10382000044618B994213020FDF7E0FB082900F286
:103830003281DFE811F0090080008A008A008500EB
:1038400030011C0124012E010023C0F8A43290F89D
:103850006832B0F89420002B65D0B0F866329342FD
:103860005BD1B0F81422A0F89420D31AA0F8163235
:10387000D4E9A0232046C4E9A22303F063FB94F813
:103880001B32002B00F0B680A569D4F85C32DFF85B
:103890000C829D4288BFED1A98F8083098BF002529
:1038A0001BB9636B9D4228BF1D4604F134000BF029
:1038B00099FC064694F86D0004F0E8FCD4F8203238
:1038C00003F24517374400F55F404FF47A734130F7
:1038D000B0FBF3F00744022007F0B8FDED1B25EA2A
:1038E000E575854228BF05460221284607F0FCFD04
:1038F00000B92F4440F27922394620460BF0BEFC35
:10390000D4F82032C8F80C00A069184407F044FD30
:1039100000286FD140F2A33185E79A1AA0F8162249
:10392000A4F89430A4E7B0F864329A1AA0F81622EA
:10393000B0F86432F4E704B0BDE8F0410CF098B898
:1039400004B0BDE8F04104F081BB0CF02FF9D4E9DC
:10395000A223801A61EB0301012871F1000302DA4E
:1039600040F21A615FE76FF0010383424FF00003FA
:103970008B4102DA40F21B6155E7A3690BB1B0FB42
:10398000F3F394F89E10B4F866220D2935D1013274
:10399000A4F86622B4F89A32B4F894500133A4F82B
:1039A0009A32B4F8CE301D44B4F8CC30013DED1A53
:1039B000ADB20DF10E06B4F866126B1A1B0436D5C3
:1039C00094F8A1303649002B0CBF3E23082384F81D
:1039D000BF3004F1B6000BF084FB20460CF04AF82F
:1039E000002384F8543294F89C0206F09BFE2023B6
:1039F00084F89C3204B0BDE8F081B4F894100B4414
:103A00009BB2D11A090454BF531C01339BB2A4F8D2
:103A1000663294F86932002BBCD1B4F81432B4F891
:103A20006622934204BF0133A4F86632B2E7002352
:103A300000961A462046FFF77BFC0028DAD00128C2
:103A400012D1B4F86622B4F81012BDF80E30134447
:103A5000521A12049BB204D5EA1A12F4004F18BF8E
:103A60000B46A4F86632A6E740F25A61DBE6012075
:103A700004F0AEFE04B0BDE8F04109F0A4BB90F83C
:103A80005432042B01D0B821CDE6002380F8543203
:103A9000B0E7BE21C7E6C221C5E600BF800C00200A
:103AA00081F3000090F8E0302DE9F04104460D4626
:103AB000164603F0FF0813B10C20BDE8F081014663
:103AC000474806F005FE20280746F5D0502241461B
:103AD00004F1C00008F05EFB012384F8C070C4F854
:103AE000C45084F8E03035B101F0F2FD00F0070079
:103AF000013085F84002204609F0A7FD00274FF469
:103B00008173A4F8F230A4F8F00084F8E87004F0AF
:103B1000C5FEB4F8F050D2350544204609F0C1FC8A
:103B2000ADB2014668B30AF02BFE00F5CD6189B253
:103B3000304604F083FE3044C4F8EC000CF036F854
:103B4000281841F10001C4E93E01012084F8C800B1
:103B5000E78409F063FDDB3E361AC4F8CC604FF011
:103B6000FF326FF00043C4E9402394F8C00004F131
:103B7000E80106F033FF30BB40F2E9113020FDF7D9
:103B800035FA204609F0B1FB164FDB30C4F8EC00E3
:103B9000388A40B1E08C30B101F09AFD3B8AB0FB2D
:103BA000F3F202FB130005440CF000F82D1841F16C
:103BB0000001C4E93E51002ED1D0751941F1000138
:103BC000C4E94051D1E7D4E93E2300252046C4E9A9
:103BD0003623A4F8E250294609F07FFC28466CE71A
:103BE000E3D60000800C0020F0B5002385B0CDE9BD
:103BF000003301238DF806306846FDF78BFE70B167
:103C00001B4E0123B3740027CDE9027702A8FDF70C
:103C100081FE0546A8B10020B07405B0F0BD009843
:103C200009F075FEE8E790F89C0207F091FD94F822
:103C30009C0284F8545206F075FD202384F89C32CF
:103C4000E2E7029B002BE1D093F89C22202ADDD0F2
:103C500018884FF6FF739842DDD02946FDF722FE03
:103C600004460028DFD140F21F113020FDF7BEF9D5
:103C7000800C0020054B002201211A7219709A74E1
:103C800042F210721A82FFF7AFBF00BF800C002013
:103C9000014B1872704700BF800C002008B503F07C
:103CA0005BFE044BDA6882422ABF987C002080F0D9
:103CB000010008BD800C00202DE9F34704460529CA
:103CC00000F2A280DFE801F0037D6A7A819BD0F8E0
:103CD000A432002B50D090F86A32002B4CD090F8D0
:103CE0005432032B48D190F86DA00AF049FD0646E6
:103CF00094F80D02FFF70EFB804606445046D4F8B8
:103D0000A47204F0BBFA3F1A504604F0BFFA00F266
:103D1000E7325046D4F820524FF47A79B2FBF9F2E8
:103D2000BF1A04F0ABFA2D1A504604F0AFFA00F5B2
:103D30002340A130B0FBF9F02B1A5A08B6B2603B11
:103D400008F5C868293273431FFA88F8B3FBF8F303
:103D500060335908A2EB53039F4202D30A449742AF
:103D600001D905F001F8A069314604F067FD002390
:103D7000C4F85C0284F86A32254B9B7C03F0FF0296
:103D800063B9B4F81412009201232046FFF7D0FA69
:103D900038B140F2E4613020FDF728F9042384F8BB
:103DA000543203F05FFF06F0F9FAB4F89420A4F857
:103DB00066220023A4F89A3284F8693202B0BDE882
:103DC000F087032380F85432F8E703F0BFFD05467F
:103DD000C4F8A40294F86D0004F050FA854202D2AF
:103DE0004FF46A71D7E794F86D00D4F8A45204F048
:103DF00045FA074BDA6815442D1ADD60DEE702B09C
:103E0000BDE8F04709F044BD4FF4EE61C3E700BFE1
:103E1000800C00202DE9F84306460C4615468ABB67
:103E200003F09AFD0121D4E93E89074684F8E05069
:103E3000D4F8C40084F8C85084F8E11001F0EAF81E
:103E4000D4F8C400C0E9A28994F8C03080F89C324C
:103E5000C0E9A489C0F8A07209F02EFD20B140F29B
:103E600027713020FDF7C2F803F0FCFE06F096FA49
:103E7000074994F8C000324604F09AFC28B940F291
:103E80008371EEE740F29A71EBE7BDE8F88300BF7B
:103E90001D380000014B1882704700BF800C0020C5
:103EA000F0B5070CA7F5AA42144B543A012A03EACD
:103EB00090231FD927F4004042F6AA22801A18BF87
:103EC00001200022162116461F2487EA060562EA11
:103ED0000505013510D0DD03ADB245EA5606E50310
:103EE000ADB2013945EA52024FEA53034FEA540496
:103EF000EBD1F0BD0020E4E70020FAE7E0FF3F004F
:103F000010B501210020FDF7CDFC044670B9012158
:103F1000FDF788FC044620B940F21D313920FDF739
:103F200065F8034B93F9001009F0A7F9204610BD7E
:103F3000980C0020304BF0B55A88B0F86070B0F89B
:103F40005E609D88974228BF1746964228BF164656
:103F50001B2E85B00C462ED0B5F5A47F2DD040F693
:103F600048039D4201A928BF1D4609F0FBFEBDF88C
:103F70000A309F4228BF1F46BDF80C30E780AB4295
:103F800028BF2B462381BDF806309E4228BF1E461F
:103F9000BDF8083066809D4228BF1D46A580FF23DE
:103FA0002370E3881B3B9BB2E02B08D94FF4B5612B
:103FB0003920FDF71BF81B2FCED105B0F0BD63886B
:103FC0001B3B9BB2E02B02D940F2AA51F0E72389B8
:103FD000A3F5A4739BB2B3F5E06F02D940F2AC51E4
:103FE000E6E7A388A3F5A4739BB2B3F5E06FE4D929
:103FF00040F2AE51DCE700BF980C002008B50AF093
:10400000CEFC00F009FF00F0E3FB0BF05CF801F0E0
:1040100099F801F089FE01F0ADF8084B1B224FF42E
:10402000A4715A809980064B06499A800022196033
:10403000DA825A821A835A7408BD00BF980C002095
:10404000B010002003021B00044B41F64C52C3E9A0
:1040500002221B221A74FFF7D1BF00BFB01000204C
:104060002DE9FF41344DAB68044640F8343F09F078
:1040700084FC064600F09CFB10F0200F08BF1B22BA
:104080002B7C1DBFAA886988A4F85E10A4F85E2066
:1040900084F83C30A4F86020E68700F089FB8B07A9
:1040A00006D5012302A88DF80830039409F07BFDA2
:1040B000AE7CEF7CB5F8148041F64C53A36116B981
:1040C00000F07CFB064657BB00F078FB074646B382
:1040D00038B302A920468DF808608DF80970ADF854
:1040E0000A800AF058FD6B7801932B7800936A8858
:1040F000AB8804F1140104F11000FDF743FC2369BF
:1041000013B940F27F5114E0636913B94FF4B06101
:104110000FE0002004B0BDE8F0810920FAE7002E8E
:10412000D7D120880021FDF7D3FB0028F5D040F23D
:1041300072513920FCF75AFFB0100020F7B5054640
:104140000E4609F0CDF8002873D0284609F0A9F9E9
:1041500040B1B6F80130013B7F2B03D91224204631
:1041600003B0F0BD284609F0A0F908B90C24F6E721
:10417000284609F0C3FC0028F8D1284609F06EF85B
:1041800004460028F2D12846FEF7EEFE0028E5D0CE
:10419000B6F80170F17842F2107328465F4309F0D7
:1041A0006DF9284609F075F9014658B93A4628468E
:1041B000FFF778FC04460028D1D041F29C713920E9
:1041C000FCF714FF21460DF10600FDF7F3FA064651
:1041D00068B3214600F01EFFBDF806303380284644
:1041E000314609F06CF9284609F065F998B9284676
:1041F00009F063F901463046FFF732FF0446002814
:10420000ADD13A4631462846FFF74CFC044620B172
:1042100041F2BF71D3E70121EDE7074B9B68002B0B
:104220009DD0024606F599713046984797E70D24D0
:1042300095E7422493E700BF980C0020034B5A886F
:1042400002801B7883700020704700BFB0100020F0
:1042500037B583781A2B054609D8042B05D90122D6
:1042600002FA03F3134A134205D112241AE0292B50
:1042700001D03B2BF9D12888B0F5706FF5D2694693
:104280000AF0DBFB88B9019B93F8302102F0FF04B0
:104290006AB9AA7883F83121FF2283F83021684671
:1042A0000AF0ECFE204603B030BD0224FAE70C24ED
:1042B000F8E700BF200038040188A1F11B039BB27E
:1042C000E02B0CD84288A2F5A4739BB244F24810AC
:1042D000834204D8034B002059809A8070471220F3
:1042E000704700BF980C0020034B5A889B880280BF
:1042F00043800020704700BF980C002038B5047838
:104300004278857804F0010352EA030104F00204C4
:1043100001D1112038BDBCB9002DFAD0002B08BF47
:10432000144601E000242546204609F0D4FC00286C
:10433000EFD0284609F0CFFC0028EAD0054B00203A
:104340009C74DD749882E5E7002BEBD114461D4682
:10435000EAE700BFB010002013B5008869460AF0F4
:104360006CFB18B10224204602B010BD019A92F8ED
:104370005432DBB292F8BE20002AF3D113F0FB0FC7
:10438000F0D0019890F842310BB13A24EBE790F865
:10439000E63003F0FF04002BF7D190F8DD309B07E7
:1043A00006D1012380F8423168460AF067FEDAE759
:1043B00002490222DE300AF09AFED4E76DF70000CF
:1043C000F0B50778EF2F85B004460D4603D91225C6
:1043D000284605B0F0BDB0F80130ADF80C309DF8BE
:1043E0000C30DA063FD49E0603F0030238D5002ACB
:1043F000EDD11807EBD46378190711D42179E2784D
:10440000E07942EA0122617942EA0142A17941EA76
:104410000021207A41EA00418A42D8D81F2AD6D901
:10442000627A013A062AD2D8A27A032ACFD813F0A8
:10443000040102D1023A012A03D8E27A012AC6D83D
:1044400011B9A27C032AC2D813F01001227D19D021
:10445000012ABCD1227E012AB9D8B1B91125B7E70A
:10446000032AC6D1B3E713F0600FB0D103F00F02F7
:1044700003F00703052BBED0931E012BBBD9002AE6
:10448000A5D1B8E7022AE5D1A1E7DA071FD46378FE
:10449000227D03F0180108291ED1022ADED11B0754
:1044A00009D4E279A37943EA0223227A43EA024358
:1044B000B3F5804FD2D8BFB201213846FDF7F2F9EB
:1044C000064678B109F01AFBB8B10C2580E700F078
:1044D00031F90028DBD1C1E7022AE0D0A27E002A10
:1044E000DDD0BBE701213846FDF79CF9064650B305
:1044F000164B93F9001008F0C0FE304608F0C6FFD6
:1045000021462870E074304608F00BFF637E0546B4
:10451000002B3FF45DAF00287FF45AAF316B0246A9
:104520006846FDF7F7FA306B2A46012108F08DFD49
:10453000316B68460422FDF7EDFA306B2A462946B6
:1045400008F083FD44E7072542E700BF980C0020F0
:1045500070B50579042D8AB0034658D84488B4F55F
:10456000804F54D82B48465D284400214279857AF3
:10457000C07BADF8041042F0100242EA460242EA63
:10458000850242EAC00202F01F028DF80420BDF845
:104590000420ADF80D201A888DF80F208DF81240F8
:1045A000120A240A8DF811108DF814108DF81020BD
:1045B0008DF813405A7B8DF815205A798DF8162006
:1045C0009A79D3F807008DF81720B3F80B209B7B5E
:1045D0008DF81E307F238DF81F3001238DF80C10CD
:1045E00006908DF82110ADF81C208DF820308DF844
:1045F000223003A88DF823108DF824108DF8251093
:104600008DF8261001A9FFF7DBFE0AB070BD12205D
:10461000FBE700BF089802000278034672B14278B7
:1046200062B142881A2A09D982881A2A06D9044A0C
:10463000006810609B8893800020704712207047AC
:10464000B0100020024B02689A600020704700BF43
:10465000B01000200378A3F10A02112A9DBF024A7C
:104660000020137412207047B010002008B50520F8
:1046700000F090F802F0B0FD014B024A9A6008BDCC
:10468000980C0020353F000008B5FEF755FCFFF7F9
:10469000F1FABDE808400148FEF738BCA40C002040
:1046A00010B50B4C012384F80231FEF74DFC01F0EC
:1046B000E9FE0AF072F904F203112046FDF7FCFB53
:1046C000002008F068FCBDE8104000F0A1BE00BF6B
:1046D000A40C002010B5064C064904F502700AF03F
:1046E00011F804F503700449BDE810400AF00AB857
:1046F000A40C00204C0000205400002010B5094CF0
:10470000094904F5027009F0FDFF04F5037007493B
:1047100009F0F8FF04F504700549BDE8104009F000
:10472000F1BF00BFA40C0020640000206C0000203A
:104730005C000020014B93F802017047A40C00209C
:1047400010B5074C00F05CFED4F8080209F0D2FF67
:10475000FFF77AFC00F0D4FF012384F8143210BD77
:10476000A40C0020014B93F814027047A40C002005
:1047700010B5074CD4F80C0209F0BCFFD4F81002B5
:1047800009F0B8FFFFF73AFC002384F8143210BD9B
:10479000A40C0020C2080549012300F0070003FA19
:1047A00000F08B5C18438854704700BF1000002055
:1047B000014BD3E90001704710000020034B18683B
:1047C000C0F30020400040F00100704710000020BE
:1047D00008B504F05DF8084A002332F8231081423E
:1047E00005D302EB83039B78044A137008BD0133A1
:1047F0000C2BF2D10023F7E71C980200B90E002021
:1048000010B544682388A4F89D3194F86C3084F87E
:104810009C11012B06D0022B04D04FF422710620EC
:10482000FCF7E4FB84F89F3194F86D30012B01D044
:10483000022BF2D184F8A0310449022204F2931031
:104840000AF055FC002384F83C3110BD85E70000D8
:10485000406808490388A0F88F3190F8643080F8E8
:10486000913190F8653080F8923100F5C3700AF00C
:1048700038BC00BF9BE700002DE9F743456895F879
:104880009E3095F89D80232B04460F462CD19E35F3
:1048900038460AF0D2FB00284CD038460AF0C7FB55
:1048A000814638460AF0C5FB014609F0CAFF666832
:1048B00048B396F86C30984225D096F83C21012AEE
:1048C0000CBF96F83E2196F86820114232D0B8F11C
:1048D000210F18D096F86520114214D153B94FF426
:1048E000B6710620FCF782FBB8F1210F40F0B380CF
:1048F0009D35CDE7042B01D0042831D1984294BFD7
:1049000000200120B0B9484609F09BFF002849D09B
:1049100096F86D30834245D096F83C31012B0CBFA0
:1049200096F83F3196F8693019EA030F14BF012356
:104930000023BBBB636893F83C21012A19D11E21D7
:104940002046FFF75DFFB8F1210F1FD1FA786368A9
:10495000182A83F8212110D040F26D217E20C1E772
:10496000082BCBD00828C9D098422CBF00200120AA
:10497000C8E7002283F83C21E5E7092283F89D205F
:1049800093F8D63093BB40F27521E7E70023204629
:104990002B700AF0BDFC3946204603B0BDE8F04359
:1049A0000AF0DABC304601AA394609F057FFD4F8BC
:1049B00004800646F8B998F83C31012B18D101461D
:1049C0002046FFF71DFF2E70636803F19E0295429B
:1049D00002D1002283F89E20636803F19E02954273
:1049E0004FF0000534D120460AF092FC002033E05D
:1049F00088F83C01E8E738460AF01DFBA8F8B40245
:104A00006068B0F8B432B0F89420013B9B1A9BB2B6
:104A100047F6FD72934207D9282380F8BF3010492A
:104A2000B6300AF05EFBD7E790F89E300D2B02D02F
:104A30000A3B012B01D82A23EFE79DF8043080F8C8
:104A4000B6329DF8053080F8B73225232B70C3E7C6
:104A500083F8D650CAE7022003B0BDE8F08300BF58
:104A600081F30000044B002283F822204FF6FF72EE
:104A70009A84DA841A857047BA0E0020054B9A8C06
:104A8000824201BF002283F822204FF6FF729A84EF
:104A9000704700BFBA0E0020014BD884704700BF9A
:104AA000BA0E0020094A0346908C4FF6FF718842E7
:104AB00006D192F82210012905D01A600120704712
:104AC0000020186070470020704700BFBA0E002019
:104AD000064B93F82220012A1FBF0120DA8C83F8AD
:104AE00022009A8408BF0020704700BFBA0E002041
:104AF000014B1885704700BFBA0E0020064B0246D6
:104B0000198D988C884205D193F8220018B1136052
:104B10000120704700207047BA0E0020094B998C85
:104B20001A8D914201D0002070474FF6FF729A848F
:104B300093F82220002AF6D0002283F822200120B8
:104B4000704700BFBA0E0020054B998C1A8D914218
:104B500003BF93F82200B0FA80F0400901207047AB
:104B6000BA0E002050B90A4A1346012003F8010B7F
:104B70000868C2F801008A889A807047012805D128
:104B8000034B0A689A608A88D8719A81704700BF7F
:104B9000E40E002048B90A4B187880B1D3F8012000
:104BA000B3F805300A608B807047012806D1044BAA
:104BB000D87920B19A680A609B89F4E70020704791
:104BC000E40E002020B9054B187800F00100704772
:104BD00001280ABF014B0020D879F6E7E40E002037
:104BE000F0B51A4B93F800C006460025E8B284459C
:104BF00001D8082029E093F853410A7893F854E14A
:104C000093F85871624093F85241744022444C78B2
:104C100084EA0E04224493F855E18C7884EA0E0469
:104C2000144493F856E1CA7882EA0E02144493F8C9
:104C300057E10A7982EA0E0222444C797C40D44240
:104C400005F1010503F10703D0D1F0BDF20E0020FC
:104C500030B5094B01465C78002203F58173D0B270
:104C6000844201D8082005E013F8015B8D4202F16F
:104C70000102F4D130BD00BFF20E0020F0B5254D89
:104C800095F88A4189B0224605F28B11684607F0F3
:104C900009FA2146684609F0A1FE0446B8B300EBC4
:104CA0004001C9B202A8FCF739FB601E95F8936178
:104CB000C0B2012495F88A2105E0731CB3FBF2F120
:104CC00002FB1133DEB206F120030DEB030111F8F4
:104CD000203C002BF1D100EB400220326A4406EB6D
:104CE00046032B4412F8187C83F8947112F8177C51
:104CF00012F8162C83F8957183F8962101F8204C50
:104D00000138AB19C0B2FF2883F88B41D2D109B06A
:104D1000F0BD00BFF20E002070B505468CB00C4609
:104D2000002A58D02E4890F89331C11891F88B2161
:104D300022B94FF480712820FCF758F903EB4302A5
:104D40000244013392F89461E67092F8956192F80A
:104D5000962162710022267181F88B2190F88A21B8
:104D6000B3FBF2F102FB113380F8933190F8B431C8
:104D700023B91C4900F5D6700AF0B6F9667906F039
:104D80003F0646F0400666710D22002104A807F098
:104D900001FAE3788DF81F3023798DF81E302B4609
:104DA0008DF81D606D4603F11006186859682A4693
:104DB00003C20833B3421546F7D1684606F036FF02
:104DC0009DF82F3023709DF82E3063709DF82D30A4
:104DD000A3700CB070BD03216018FCF79FFACDE7FB
:104DE000F20E00207D4C0000044B5A78824286BFB0
:104DF0001B1893F84A010020704700BFF20E0020F4
:104E0000044B5A78824286BF1B1893F84201002057
:104E1000704700BFF20E0020074B00224FF4617173
:104E20001A705A7083F8B52183F8B621A3F8B81127
:104E300083F8B421704700BFF20E0020014B83F8C5
:104E4000B6017047F20E0020014BB3F8B80170476D
:104E5000F20E002010B50D4B5C78844214D9184432
:104E600090F80201C0EBC0041C4494F852410C704D
:104E7000072140F2531411FB004158185B5813608E
:104E800083889380012010BD0020FCE7F20E0020F3
:104E90000246074810B590F8B54124B1417821B1D8
:104EA000023002F0E3F9204610BD0C46FBE700BFDC
:104EB000F20E00202DE9F74F2F4C9A46637883427B
:104EC0008046894656D9231893F8425185F001054A
:104ED000F9B193F84A31E3B945F002070135BAF167
:104EE000000F18D1FA070AD5062101FB084104EB8F
:104EF0000810524601F585718230FFF70DFFBB07A0
:104F000034D504EB0810524649460230FFF704FF3F
:104F10002CE02F46E3E794F893614FF0010B002D4E
:104F2000E0D0A319019393F88B1199B90092DAB1EB
:104F300000F0B6FB06EB46012144019B81F8940189
:104F40004FEA102C009A81F895C1000C81F8960167
:104F500083F88BB194F88A310136B6FBF3F103FB89
:104F60001166F6B2013DDAE747F00407384603B0B0
:104F7000BDE8F08F0027F9E7F20E0020074B5A78C2
:104F8000824209D91A1892F842212AB9062202FB54
:104F9000003000F58570704700207047F20E002049
:104FA000064B5A78824281BF1B1893F83A01B0FA37
:104FB00080F0400998BF0020704700BFF20E00202B
:104FC00030B50024A0F84C40B0F8504042F21075C3
:104FD0004C43B4FBF2F4A0F85040541E05FB0343CD
:104FE000B3FBF2F3A0F84E30094BB3FBF2F30133FD
:104FF000A0F85430B0F8483005FB0344036CB4FB10
:10500000F2F459434464B1FBF2F2026430BD00BFD4
:10501000005A620270B504460D4649BB4FF438721F
:1050200007F0B8F8012384F8A530492384F8ED305F
:10503000042384F8EE306FF03B0384F8EF3007234D
:1050400084F8F0302B2384F8EC30FE2384F82631EA
:105050007F2384F899301F4BC4F88830202384F8CC
:10506000F15084F8F25084F8F35084F89C3270BD0B
:10507000012922D100238269A0F8263280F81B3250
:10508000154B1344B3FBF2F3C0F8C43040F6B83309
:10509000A0F8C8301146438C8030FFF791FF0AF02A
:1050A0004EFE30B1E069FEF7FBFE10B984F80C52F9
:1050B000DDE7002384F80C32D9E70229D7D1B0F814
:1050C000C232D0F8BC228169BDE870408030FFF761
:1050D00077BF00BF00E0FCFF7FC3C901074B93F916
:1050E00000301844142804DC10F17F0F03DB40B2B9
:1050F0007047142070476FF07E007047AC1000209E
:1051000007B57F230DF107008DF8073002F05EFF31
:105110009DF9073068B10A4A5078404243FA80F05E
:10512000142808DC10F17F0F07DB40B203B05DF8F4
:1051300004FB1846FAE71420F8E76FF07E00F5E765
:10514000AC100020024B00221A705A70704700BF4A
:10515000AC100020054B0168FF221A70044A116050
:105160000179117100221A70704700BFAE10002043
:105170001800002007B5064B186800901B798DF8C1
:1051800004306846FFF7E6FF03B05DF804FB00BF9C
:105190003DCF020008B5037801F00F0223F00F03A2
:1051A00013430629037003D8034B5B5C437008BDAF
:1051B000A8212A20FBF71AFF4C98020003464078EA
:1051C00050B1DA782A2A06D8044B1344DB791B1A2B
:1051D0005842584170470120704700BF4C98020068
:1051E0002A2908B5C17004D8064B1944CB794370FD
:1051F00008BDFF2904D04FF48D612A20FBF7F6FE8D
:105200000123F4E74C9802002DE9F04385B089466C
:1052100002A91446984609F010FC054600283CD126
:10522000039E34B9012486F8A440204605B0BDE8A9
:10523000F08337692146384607F0B0FC014670B369
:10524000194B5B88A3422CD301AA384607F0FBFD1B
:10525000019B1D809D7096F8A4300198002B0CBF17
:105260004946022109F034FE0198224641460330A6
:1052700006F018FF2146384607F0C5FC044618B969
:105280007C212B20FBF7B2FE02A809F0F7FE039B5E
:10529000A3F8125286F8A450C7E70124C5E70446D4
:1052A000C3E72C46C1E700BFB0100020024B987D39
:1052B000C04300F001007047B0100020034B987D00
:1052C00080F00200C0F34000704700BFB010002023
:1052D00010B5094C14220021204606F05BFF122273
:1052E000002104F1140006F055FF01232373231D50
:1052F000C4E9003310BD00BFCC1000207FB50546C7
:105300000C4621B940F20B111020FBF76FFE038809
:105310008B8000234B724669304607F086FD0146BC
:1053200010B94FF48A71EFE701AA304607F08BFD00
:10533000E08010B940F21911E6E7FB2802D940F2EB
:105340001B11E1E7019809F0CBFD012801D00228EB
:1053500005D12072206828B94FF49971D4E740F242
:105360002B11D1E70199E288033106F09BFE30460C
:1053700007F071FD10B940F23711C5E70021304642
:1053800007F0A5FC10B94FF49E71BDE70A4BDA7D1A
:1053900082B11A8B2888013A02A91A8309F04DFBC1
:1053A00010B140F24511AFE7039AB2F8B4300133BF
:1053B000A2F8B43004B070BDB010002010B520B910
:1053C00040F271211020FBF711FE41600272EFF3F1
:1053D000108472B6094B1A1D0260596819B1097A16
:1053E000012908BF1A601A681060186004B962B613
:1053F000BDE8104093F8260006F0EABCCC1000206F
:10540000024B83F82600FFF763BF00BFCC100020DB
:10541000014B024A1A60704774000020FD520000E0
:10542000F7B5514E514F054673681B7A102B06D1C4
:10543000FB7D23B13B8B13B9002003B0F0BD336972
:10544000ABB11B7A9BB13469002CF5D0237ADBB267
:105450000522023B22720E2B78D8DFE803F01925D3
:10546000457777774E777777777777636A007468D1
:10547000237A012BE0D0EFF3108372B672681268C2
:10548000726003B962B6237A002BD8D03461DDE7AD
:10549000636823B94FF4E1711020FBF7A7FD29469B
:1054A0002046984704200FE0636813B940F2CB11FF
:1054B000F2E72946204698470346C3F30723012B0A
:1054C000ADF80400C0B244D0EFF3108372B6227A74
:1054D000052AD1B201D0002941D1002222723261C5
:1054E000002B38D162B636E0636813B940F2D511AB
:1054F000D2E7204698470020E6E763680BB9E02131
:10550000CAE70B222A701A88A5F80320002401227A
:1055100018696A71AC71AA70214607F0D8FB346132
:1055200004208AE715232B70D4F80930C5F803301E
:10553000B8E7606810B940F23D21ADE70C4B294651
:105540001B68984700233361022076E740F246212A
:10555000A2E70323237200283FF466AF6DE7002B18
:105560007FF462AF62B65FE7CC100020B01000207D
:10557000740000200448037F23B904490222143038
:1055800009F0A3BD704700BFCC100020BDF00000A3
:105590001B234FF01B128384038482618382C260C9
:1055A000038539B94FF4A473034AC3844384C261A9
:1055B000C3820261704700BF4801480103460846A4
:1055C000B3F85820B3F84C109142F0B528BF1146FB
:1055D000B3F85040B3F85A20B3F84850B3F84270CB
:1055E000B3F84660A3F84210A24228BF2246B3F89F
:1055F0004A40A3F84620944238BF14468D4238BF33
:105600000D468F42A3F84850A3F84A402ED1B61A4F
:1056100018BF0126B3F84E50B3F85440B3F856E023
:10562000B3F840C0B3F84470A54228BF2546B3F88C
:105630005240A3F84050744528BF7446AC45A3F8C7
:10564000444002D1A74200D196B11B88A0F809308E
:10565000A0F80B50A0F80D40A0F80F10A0F81120F2
:10566000BDE8F0400349022209F041BD0126D1E71F
:10567000F0BD00BF07F100000B8BA2F80B304B8B85
:10568000A2F80D308B8BA2F80F30CB8BA2F809005B
:105690000249A2F81130104609F023BD47F100007D
:1056A000094AD2E90003434083EAB01181EA432169
:1056B0004FEAF3435360054B116058434FEAF060E3
:1056C00000EB8000704700BFF4100020BB79379ECC
:1056D000094AD2E90203434083EAB01181EA432137
:1056E0004FEAF343D360054B916058434FEAF060B3
:1056F00000EB8000704700BFF4100020BB79379E9C
:1057000038B50A4C04F1080508212846FBF706FEC7
:10571000D4E902231343F7D0FFF7DAFF2060FFF745
:10572000D7FF236860600343F6D038BDF410002033
:1057300070B5044640680D4690F89E200123002174
:10574000803009F091F920B32846666809F015FC0D
:10575000A6F8B4026068B0F8B432B0F89420013B07
:105760009B1A9BB247F6FD72934208D9282380F812
:10577000BF300949B63009F0B4FC002070BD00F21A
:10578000B621284609F0F4FB63680A2283F89E20BC
:10579000F3E70120F2E700BF81F30000F8B504460B
:1057A00040680D4690F89E2001230021803009F0CA
:1057B0005BF9002849D00021284609F0ACFB28B944
:1057C00029462046BDE8F84009F0C6BD6068B5F836
:1057D0000D30B0F89420A0F8B432D24313449BB2F9
:1057E00047F6FD72934208D9282380F8BF30184944
:1057F000B63009F076FC0020F8BD284609F082FB9F
:1058000009F0EDF96768C7F8BC0206460146287939
:1058100009F0E9F9A7F8B6023146B5F8050067685E
:1058200009F0EAF9C7F8B8022846666809F06DFB86
:10583000A6F8C0022846666809F06AFB6368A6F805
:10584000C2020D2283F89E20D5E70120D4E700BFD5
:1058500081F3000008B5406890F89E30152B04D005
:105860004FF493711F20FBF7C1FB012380F8DB305D
:10587000162380F89E30BDE808400349022200F557
:10588000317009F022BC00BF2BF50000436830B531
:10589000D3F88C4014F001001DD14D680F4A89687F
:1058A000A3F8D8002A40C3F8EC20C2F3076242F004
:1058B000080221F4FF6183F8EF2093F8DA20C9048D
:1058C000C90C013244F00104C3F8F01083F8DA2067
:1058D000C3F88C4030BD0120FCE700BF2F4904F71E
:1058E00070B54468037894F89D200D4604F180005B
:1058F000072109F0B9F870B36968194BAA680B4021
:10590000C4F8EC3022F4FF62C3F3076343F00803EA
:10591000D204D20C84F8EF300023C4F8F02084F8CD
:10592000D63084F89D3094F8A92102F0FF06A2B980
:105930002388A4F8AB3184F8AA616B68C4F8AD3150
:10594000AB680849C4F8B131022204F2A11009F091
:10595000BCFB304670BD0126FBE71E46F9E700BFE1
:105960002F4904F75DF60000406890F8A9315BB953
:105970000388A0F8AB311A2380F8AA310349022228
:1059800000F2A11009F0A1BB704700BF5DF6000056
:1059900010B50446FEF70CFF044B21F4FF61C90467
:1059A0000340C90C6360A16010BD00BF2F4904F71C
:1059B00037B50C464568FEF7FBFE094B95F8EC2021
:1059C00021F4FF610340C9040093C90C13408DF812
:1059D000003001916B4603CB6060A16003B030BD25
:1059E0002F4904F738B54468037894F89D200D4694
:1059F00004F18000082109F037F818B9D4F88C3088
:105A0000980741D494F8DD3099071AD4284609F054
:105A1000D6FA84F8E700B5F80530A4F8E830B5F810
:105A20000730A4F8EA3094F8DD3043F0020284F83D
:105A3000DD20DA0705D51549022204F1DE0009F060
:105A400056FB94F8DD30DB0713D4D4F88C3013F018
:105A5000020203D050214020FBF7C8FA43F00203B2
:105A6000C4F88C3094F8DA30A4F8D820013384F8E4
:105A7000DA3094F89D30012B4FF0000003D184F808
:105A80009D0084F8D60038BD0120FCE76DF70000CA
:105A9000114A00F5006092F90010031340F307303B
:105AA00081420BDD92F90120584242FA80F07F28B2
:105AB0000DDC10F1800F0CDB40B2704792F9021040
:105AC000814202DA92F90320EEE7002070477F203E
:105AD00070476FF07F00704704110020F7B56FF436
